:400000000040002011000000310700003107000080B500AF00F090FB80B584B000AF021CFB1D1A70204A3B1C0B3312781A701F4A3B1C0A3312781A700423013BFB6018E0CE
:400040001B4B1868391C0B31FA68131C5B009B18C3185B780B70164B1868391C0A31FA68131C5B009B18C3189B780B70FB68013BFB60FB68002B0ADB0D4B1968FA68131CF1
:400080005B009B185B5CFA1D12789A42D8D9094B3A1C0B3212781A60074B3A1C0A3212781A60BD4604B080BDCCF1FF0FCDF1FF0FD80000201CFF0B4020FF0B4080B500AF43
:4000C000244B12221A600C20FFF7A6FF224B0C221A60052001F000FC204B214A1278D2B21A60052001F020FF01F0B0FCFA235B00181C01F0F5FE012001F0B8FC194B1A4AA7
:400100001A601A4B8022D2051A60194B194A1A60194B194A126808218A431A60FA23DB00181C01F04DFC154B181C01F0FDFE144BC02292001A60134B134A1A60134BA6226D
:4001400012061A60124B40221A60024B00221A60BD4680BD300010402CFF0B4028FF0B40D9F1FF0F04010B40060000800C020B407C002E406A2D00006CF02E40DC050000F0
:40018000000301400000014040FF008008010B401801014080B582B000AF72B6414B00221A60FB1D00221A7023E0FB1D1A78131C5B009B185B003C4A9B183B603B681A78D5
:4001C000597809020A43997809040A43DB781B0613431A1C3B6819795B791B020B439BB2101C191C00F02CFBFB1D1A78FB1D01321A70FB1D1B78012BD7D92C4A2C4B101C13
:40020000191C00F02DFB2B4B03221A602A4B00221A602A4B00221A60294B81221A60294B8022D2031A60284B802212021A60274B01221A60264BC1221A60264B264A1A6069
:40024000264B274A1A60274B802212061A60264B992212041A60254B802292021A60244B234A1278D2B202210A43D2B21A70214B204A1278D2B23C218A43D2B214210A4324
:40028000D2B21A701A4B1A4A1278D2B216210A43D2B21A70FFF712FF00F022FBBD4602B080BDC0466CF02E40041B0100101B01001C1B01000003024000000240080004409A
:4002C00000020440080204400C0204401802044000030440080304400600D80020500F400400990024500F4030500F4038500F4000700F4001700F4010B5064C2378002B25
:4003000007D1054B002B02D0044800E000BF0123237010BDE003002000000000F01A010008B5084B002B03D00748084900E000BF07480368002B03D0064B002B00D09847EB
:4003400008BDC04600000000F01A0100E4030020C80000200000000080B500AF012000F087FB012000F0C2FB62B601F0A3FE01F0C7F8064B181C00F069FD054B181C00F0CA
:40038000F5FB00F0A7F9BD4680BDC04609060000D105000090B583B000AFFFF7DDFF01F061FA00F091F801F01BFA00F0B7F9021C3B4B1A603B4B1B78022B15D13A4B1B78CC
:4003C000002B11D1364B1A68384B1B68D21A384B9A4209D9374B1A78374B101C191C09F05BFC314B01221A702D4B1A68334B1B68D21A334B9A4206D900F0BEF8284B1A688F
:400400002E4B1A602AE029E002F014F8FC1D032002F008F8031C2370BC1D01F066FA031C2370FB1D1B78032B0CD103F0F1FA031C042B04D003F0ECFA031C062B09D101F052
:40044000A1FD06E003F0E4FA031C022B01D001F07FFDBB1D1B78181C01F04BFA00F05EF9021C0F4B1B689A42CED0164B1B78002B14D000F033FD00F085FA00F09BFA0120D4
:4004800000F0F6FA012000F031FB002000F016FB002000F04FFB01F0ABFD80E77FE7C046FC0300201825002018040020140400208813000020250020CC0000200004002038
:4004C000E70300001104002090B583B000AF00237B6001F031F9022001F03CF9BC1C002001F05CF9031C2380BB1C00215A5ED423DB009A422EDD1A4B1B78002B26D0194B6F
:400500001B78002B08D0174B00221A7000F006F9021C154B1A6019E000F000F9021C134B1A60124B1A68104B1B68D31A7B607B68002B07D00E48796801F07EFE031CDAB29F
:400540000C4B1A70094B1A68074B1A60044B00221A7002E0024B01221A70BD4603B090BDD4000020D5000020080400200C04002060EA00000404002090B583B000AF114BE4
:400580001B78002B1BD03B1D002002211A1C00F0F9FA0D4B1A783B1D5A700C4B3C1D1A785B781B021A4300231204120C1B0C1B041343181C00210222231C00F031FBBD4679
:4005C00003B090BD10040020040400202025002080B582B000AF786039607B687222FF32934204D0B9225200934204D007E0054B01221A7003E0034B00221A70C046BD46C2
:4006000002B080BD1004002080B582B000AF786039607B68282B1CD004D8012B09D0262B0ED039E0422B27D0712B29D0412B17D032E0002000F060FC002000F019FA2BE0CD
:40064000174B1B78042B03D1164B01221A7023E022E0144B01221A70134B00221A701BE000F05CF8021C114B1A60012000F000FA002000F03BFA0FE00D4B00221A700BE0F8
:400680003B681B88002B03D1074B02221A7002E0054B03221A70C046BD4602B080BDC046182500201104002018040020140400201004002080B500AF054B1B681A1C0A32B3
:4006C000034B1A60042001F03BFBBD4680BDC0461C04002080B500AF0F4B0820191C01F065FB01F00DFA0020012101F047FA0020012101F073FA4023FF330020191C01F08E
:40070000D7FA012001F0A2FA082001F0C9FB01F0CDF9BD4680BDC046B506000080B500AF024B1B68181CBD4680BDC0461C04002080B500AFFEE7C04680B586B000AF224BE1
:400740007B61224B3B61204B7B6135E03B691B68FB603B695B68BB603B699B683B6000237B600CE0FB681A68BB681A60BB680433BB60FB680433FB607B6804337B607A6845
:400780003B689A42EED13B69DB683B6000237B6008E0BB6800221A60BB680433BB607B6804337B607A683B689A42F2D13B6910333B617B69013B7B617B69002BC6D101F030
:4007C000EBFDFFF7E7FDFEE7010000006C21010080B582B000AF154B144A126801218A431A6000237B600FE07B68032B04D8104B7A689200D35800E00E4B0F4A796889003C
:400800008B507B6801337B607B682F2BECD9FFF7C1FC0A4B00221A60044B044A126801210A431A60BD4602B080BDC04600001040000000003107000000000020C0000020C5
:4008400080B582B000AF786039607A683B68101C00211A1C01F0DEFDBD4602B080BDC04680B586B000AF7860396000233B6100237B612EE07B699B007A68D3181B68BB60E4
:400880003B1C0F33BA681A70BB68FF229343BB6017E03B695B003A68D3181B781A1CBB68D3183A69520039688A1852781A703B6901333B613B1C0F331A783B1C0F33013A65
:4008C0001A703B1C0F331B78002BE2D17B6901337B617B69022BCDD9BD4606B080BDC04680B500AF0E4BC02212061A600D4B03221A600D4B0D4A1A600D4B03221A600D4B9D
:40090000802212051A600C4B8022D2031A600B4B0B4A1A60012000F015F8BD4680BDC046000030403000304080003040044004003000314000003A4000033A40000E3F4046
:400940000301008080B584B000AF021CFB1D1A700B4B1B68FB60FB1D1B78002B05D0FB68802212061343FB6003E0FB685B005B08FB60034BFA681A60BD4604B080BDC046EB
:4009800080033A4080B582B000AF094B1B68DAB2FB1D7F218A431A70054BFA1D12781A60FB1D1B78DB09DBB2181CBD4602B080BD1002044080B500AF00F050F8054B181C0F
:4009C00000F00EF8032000F017F800F03DF8BD4680BDC046D909000080B500AFBD4680BD80B582B000AF7860024B7A689A64BD4602B080BD0000002090B585B000AF021CFA
:400A0000FB1D1A701623FB603C1C0B3400F06DFF031C23700A4B0A4A11680A4A1140FA1D1078FA68041C9440221C0A431A603B1C0B331B78181C00F05CFFBD4605B090BD6E
:400A400000E400E0FFFF3FFF80B500AF024B04221A60BD4680BDC04600E100E080B500AF024B04221A60BD4680BDC04680E100E080B584B000AF021CFB1D1A700E4B1B6892
:400A8000DAB23B1C0F3340218A431A70FB1D1B789B01DAB240231340D9B23B1C0F333A1C0F3212780A431A70034B3A1C0F3212781A60BD4604B080BD0003044080B582B029
:400AC00000AF021CFB1D1A70064B064A1168064A1140FA1D127892040A431A60BD4602B080BDC04608030440FFFFE3FF80B584B000AF021CFB1D1A700D4B1B68D9B23B1C12
:400B00000F337F220A401A70FB1D1B78DB01D9B23B1C0F333A1C0F3212780A431A70044B3A1C0F3212781A60BD4604B080BDC0460003044080B582B000AF021CFB1D1A705A
:400B4000064B064A1168064A1140FA1D127852050A431A60BD4602B080BDC04608030440FFFF1FFF80B500AFBD4680BD80B582B000AF7860024B7A681A60BD4602B080BDEB
:400B80002004002080B586B000AF3A60FB1D021C1A70BB1D0A1C1A703B1C163300221A80FB1D1B78022B04D93B1C163301221A802CE0FB1D1B78012B07D11123002B04D198
:400BC0003B1C163313221A8020E0FB1D1B78134A5B00D3185A883B1C08331A81BB1D1B789AB23B1C08339A803B1C08333A681A603B1C0833181C002101220CF039FB031CBF
:400C0000002B03D03B1C163301221A803B1C16331B88181CBD4606B080BDC0462C1B010090B589B000AF3C1C0C3420807B603B1C0B3319703B1C0A331A702C4B1B78022BEB
:400C400005D03B1C1E33832252001A8047E03B1C0B331B78022B04D93B1C1E3301221A803DE00F23002B13D00F235A1E2049131C9B009B189B00CB1808339B68181C00F0DB
:400C8000CDF9031C1A1C012313409BB2002B05D13B1C1E330422FF321A8020E03B1C0B331B78144A5B00D3185A883B1C10331A813B1C10337A681A603B1C0A331B789AB26F
:400CC0003B1C10339A803C1C1E343B1C0C333A1C10321868111C0BF045FE031C23803B1C1E331B88181CBD4609B090BD18250020141C01002C1B010090B587B000AF78605A
:400D000000237B613B1C133300221A703B1C08337A6812881A803B1C083300225A607B689A890F239A421FD13B1C083300229A707B685B68181C00F071F9031C1A1C0123E6
:400D400013409BB2002B03D07223FF337B6102E0B9235B007B612B4B1B78DBB201229343DAB2284B1A701DE07B689A8913239A4218D13B1C083302229A707B685B681B782E
:400D8000012B03D1B8235B007B6103E03B1C133380221A701B4B1B78DBB201229343DAB2184B1A707B69002B24D07B681A1D7B683C1C1334101C00211A1C40230CF074FA8E
:400DC000031C23703B1C13331B78002B12D10E4B1B68002B08D00C4B1B6879693A1C0832081C111C984705E0084B1B687A684C20111C98473B1C13331B78181CBD4607B075
:400E000090BDC04623250020200400201025002080B500AF064B00221A70064B00221A70054B00221A7000F009F8BD4680BDC046232500201C2500202225002080B500AF39
:400E400000F05AFBFFF78EFEBD4680BD90B585B000AF78603B1C0E3301221A80194B1B78002B04D1FFF7D4FF164B01221A707B68002B1FD0144B7A681A603C1C0E34134A98
:400E8000134B101C191C172201F0FEFA031C23803B1C0E331B88002B0CD10E4B01221A703C1C0E340C4B181C262115220CF0C8F9031C23803B1C0E331B88181CBD4605B0FD
:400EC00090BDC04628040020102500203D1200003004002018250020141C010080B500AF01F0BEFA01F0A6FA024B00221A70BD4680BDC0461825002090B585B000AF021CCC
:400F0000FB1D1A70294B1B78042B42D1284B1B78DBB21A1C042313403BD1FB1D1B78002B0BD1244B1E221A82224B5B6820221A80204B5B6830225A8010E0FB1D1B78012B4D
:400F40000CD11C4B96221A821A4B5B68C822D2001A80184B5B688022D2015A80164BFA1D12781A703C1C0E34124B181C0AF0B6FB031C23803B1C0E331B88002B08D10C4B2C
:400F80001B78DBB204221343DAB2094B1A7005E004E03B1C0E33832252001A803B1C0E331B88181CBD4605B090BDC04618250020232500202C0100202225002080B584B0DD
:400FC00000AF78600A1CFB1C1A700023BB60BB68002B20D07B689A79BB681A703B1C0F3300221A7012E03B1C0F331B780133BA68D3183A1C0F32127879688A5C1A703B1C17
:401000000F331A783B1C0F3301321A703B1C0F331B78052BE7D9BD4604B080BD80B582B000AF78607B681B781A1C7B6801331B781B029BB213439BB2181CBD4602B080BDFF
:4010400090B585B000AF78603B1C0F3300221A707B689A890B239A4237D17B681A1D7B683C1C0F34101C00211A1C40230CF01CF9031C23703B1C0F331B78002B1DD17B68A9
:401080005B68181CFFF7CAFF031C1A1C022313409BB2002B08D0104B1B68822251007A68081C111C984708E00B4B1B680622111CFF317A68081C111C9847084B1B78DBB2AD
:4010C00001229343DAB2054B1A703B1C0F331B78181CBD4605B090BD102500202325002090B585B000AF78603C1C0F347B68181CFFF7A6FF031C23703B1C0F331B78002B18
:401100000ED11C4B1B78DBB21A1C0123134007D03C1C0F347B68181CFFF7EEFD031C2370144B1B78DBB21A1C012313401FD13B1C0F331B78002B16D03B1C083312229A7057
:401140007B689A893B1C08331A803B1C08333A1C0F321278DA707B683A1C08321868111C0BF0E2FB03E07B6818680BF045FCBD4605B090BD2325002080B582B000AF78606B
:40118000BD4602B080BDC04680B500AF034B00225A70024B00221A70BD4680BD2025002080B582B000AF7860BD4602B080BDC04680B500AFBD4680BD80B584B000AF786081
:4011C0003B1C0E3300221A707B689B79002B1CD13B1C0F3300221A7012E03B1C0F331B787A68D35C002B04D03B1C0E3301221A700BE03B1C0F331A783B1C0F3301321A7078
:401200003B1C0F331B78052BE7D93B1C0E331B78181CBD4604B080BD80B582B000AF021CBB1D1A80BD4602B080BDC04680B582B000AF7860BD4602B080BDC04680B584B052
:4012400000AF021C3960FB1D1A709D4B1B78DBB201221343DAB29A4B1A70FB1D1B78712B00D911E19A00974BD3181B689F463B1C0C3307221A703B1C0C3300225A703B1CE7
:401280000C33181C02F0F3FB3B1C0C3307221A703B1C0C3301225A703B1C0C33181C02F0E6FB894B1B68181CFFF786FF031C002B11D0854B1B68181C01F0C0F8824B1B68C1
:4012C000181C0021FFF77AFE7F4B1B68181C0121FFF774FE19E07D4B1A787D4B1A707D4B1A787B4B5A707C4B1A78794B9A70784B181C01F0A3F8764B181C0021FFF75EFE7F
:40130000734B181C0121FFF759FE03200AF0A8F8724B04221A70B8E03B68181CFFF740FFB3E03B681A786E4B1A70AEE0644B1B78DBB21A1C202313400ED16A4B1B78102BE8
:4013400002D1684B0522DA70674B1A78654B101C191C0AF08DF998E097E03B68181CFFF765FF92E03B68181CFFF760FF5B4B02221A708AE0594B04221A7086E0574B1B7836
:40138000022B34D04E4B1B78DBB21A1C012313402DD04B4B1B78DBB21A1C042313400BD04E4B03221A70464B1B78DBB204229343DAB2434B1A701AE0414B1B78DBB21A1CE3
:4013C000082313400BD0454B04221A703C4B1B78DBB208229343DAB2394B1A7007E03F4B1B78032B03D13D4B04221A704DE04CE03B681B88181CFFF70FFF46E03A4A3B68B1
:40140000111C1A1C0223081C111C1A1C00F0F9FF354B1B789A00354BD318354A111C1A1C0423081C111C1A1C00F0EBFFFFF7C0FE2BE0FFF7A9FE28E03B685B88162B05D82B
:401440003B1C0E333A6852881A8003E03B1C0E3317221A803B683A1C0E321288198800230904090C1B0C1B040B43181C111C0BF067FA0AE03B68181CFFF732FE05E03B68F7
:40148000181CFFF779FE00E0C0460D4B1B78DBB21A1C112313400FD0094B1B78DBB201229343DAB2064B1A70124B1B68FA1D11783A68081C111C9847BD4604B080BDC04671
:4014C00023250020801F0100480100207CF1FF0F400100207DF1FF0F7BF1FF0F182500201C250020A001002020250020001C0100142500201025002080B500AFBD4680BDD6
:4015000080B500AF064B1B78002B04D100F00AF8034B01221A7000F0E7F8BD4680BDC046C810002090B585B000AF0F20032100F063FC544B0F20191C00F038FC524B012237
:401540001A60524B514A1168514A1268002A01DA504A00E0504A0A431A60504B504A1A60504B514A1A60514B00221A60504B514A1A60514B4F4A1A60504B504A1268802105
:4015800049020A431A604E4B00221A604D4B00221A604D4B01221A604C4B1B687B607A684B4B13407B607B688022920513437B607B68012293437B60444B7A681A600023CE
:4015C000FB6058E00022DC239B0113407B60FB689B00404A9B187A681A600022012313400AD0374B364A1168FA680120041C9440221C92B20A431A600022022313400AD0B4
:40160000304B304A1168FA680120041C9440221C92B20A431A60002280239B00134003D080235B00BB6002E080235B01BB60002280235B00134005D1274BFA685200002151
:40164000D15204E0244BFA6852000021D152BB68224A53438022D2009B18002B01DA204C1B19DB129BB219B21E4BFA689200D150FB680133FB60FB68002BA3D0BD4605B0DC
:4016800090BDC046BD18000020003A4000003A4080033A40C0021051C002005104003A408C000A8018003A400000FF071C003A4010003A400400040014003A4000033A405C
:4016C00028023A4038023A4018023A4030003A40FFFFFFDF80003A402825002010270000FF0700002425002080B500AF0A4B1B68002B0EDBC046094B1B68002BFBDB064B6C
:40170000054A1268802109060A431A600A2000F00BFCBD4680BDC04600003A4008023A4080B500AF034B034A1268520052081A60BD4680BD00003A4080B500AF024B0122D7
:401740001A60BD4680BDC04624003A4080B500AFBD4680BD80B584B000AF78600023FB607A680323134011D00B4B1A6801231340FB60FB68002B03D17A6802231340F3D113
:40178000FB68002B02D0044B01221A60FB68181CBD4604B080BDC04610023A4080B584B000AF78607B68002B02D0002000F08EFB7B68002B08D17B689B00084A9B181B686A
:4017C0001B041B0CFB6001E00023FB60FB689BB21BB2181CBD4604B080BDC04680013A4080B500AF1A4B1A4A1268802109060A431A60184B1B68002B24DA174B1A6880230F
:401800005B02134003D0154B03221A7002E0134B01221A70FFF79AFFFFF782FF0D4B1A6880235B03134010D00A4B0A4A11680C4A0A401A60094B1B7804221343DAB2074B98
:401840001A7002E0054B00221A70BD4680BDC04630003A4000003A4004003A40CC100020FFFFEFFF80B500AF114B114A1268520052081A600F4B1B78002B16D00D4B1B780C
:401880001A1C0423134006D00B4B0B4A1268802149030A431A60FFF727FF064B1B781A1C0223134001D0FFF747FFBD4680BDC04630003A40CC10002000003A4080B582B041
:4018C00000AF044B1B687B60024B7A681A60BD4602B080BD10023A400230800803D00138FDD1C046C046C0467047EFF3108072B6704780F31088704780B500AF0B4B0B4A66
:40190000126801218A431A60094B094A126830218A4310210A431A60054B054A126807218A4301210A431A60BD4680BD00F02E4000FF2E4080B500AF0E4B0E4A1268022159
:401940008A431A600C4B0C4A126807218A4302210A431A60084B084A126830218A4320210A431A60034B034A126801210A431A60BD4680BD00F02E4000FF2E4090B585B052
:4019800000AF78603C1C0F34FFF7AFFF031C2370094B796807220A40D104074A1068074A02400A431A603B1C0F331B78181CFFF7A0FFBD4605B090BD00010B40FFFFC7FF05
:4019C00080B584B000AF78600023FB60154B154A126801210A431A60134B144A1A60144B134A1268802109020A431A607B68002B13D01023FB600DE0012000F095FA00F07C
:401A000019F8031C002B02D00023FB6005E07B68013B7B607B68002BEED1FB68181CBD4604B080BD60F02E4078002E400220000010002E4080B500AF034B1A680123134055
:401A4000181CBD4680BDC0460C002E4080B500AFFFF752FF044B044A1268802109060A431A60BD4680BDC04600F02E4080B584B000AF78600C4B1A6801231340FB607B6897
:401A8000002B02D0012B03D005E0FFF735FF06E0FFF750FF03E0002000F018FAC046FB68181CBD4604B080BD00F02E4090B583B000AFFC1DFFF719FF031C2370074B074A59
:401AC0001268C02109020A431A60FB1D1B78181CFFF70FFFBD4603B090BDC04600010B4080B500AF054B1A68C0231B02134001D0012300E00023181CBD4680BD00010B40C0
:401B000090B583B000AFFC1DFFF7EFFE031C23700C4B0C4A11680C4A0A408021C9010A431A60084B074A1168074A0A40802109020A431A60FB1D1B78181CFFF7DAFEBD46FD
:401B400003B090BD00010B40FF3FFFFF80B582B000AF78607B68022B02D9002000F0B6F9054B1A687B68DB000133DA4001231340181CBD4602B080BD10020B4080B584B004
:401B800000AF786039607B68022B02D9002000F09DF97B68181CFFF7D9FF031C002B18D10D4B1B687A68D2000321081C9040021CD2431340FB603A6803231A407B68DB00F4
:401BC000111C99400B1CFA681343FB60024BFA681A60BD4604B080BD0C020B4080B584B000AF786039607B68002B02D07B68012B01D1012300E00023002B02D1002000F0B0
:401C000065F97B68181CFFF7A1FF031C002B18D10D4B1B687A68D20002320121081C9040021CD2431340FB607B68DB0002333A68111C99400B1CFA681343FB60024BFA6828
:401C40001A60BD4604B080BD0C020B4080B582B000AF7860154B154A11687A680A431A607A680123134006D0C0460020FFF76EFF031C002BF9D07A6880235B00134006D0FA
:401C8000C0460120FFF762FF031C002BF9D07A6880235B02134006D0C0460220FFF756FF031C002BF9D0BD4602B080BD10020B4080B584B000AF786039607B68002B02D04A
:401CC0007B68012B01D1012300E00023002B02D1002000F0FBF8174B1B689B0F9B0701D1C92300E05D23181C00F01EF9124B1B68FB607B681B01114A111C99400B1CDA4372
:401D0000FB681340FB600C4B7A68120139689140FA680A431A60074B1B689B0F9B0701D1432300E01F23181C00F0FEF8BD4604B080BDC0460C020B4008020B40FFFF000070
:401D400090B585B000AF78603C1C0B34FFF7CDFD031C2370FFF7C4FE031C002B04D00123FB60FFF7CDFE01E00023FB607A680C4B13407B600B4B0B4A11680B4A11407A68D1
:401D80000A431A60FB68012B01D1FFF78FFE3B1C0B331B78181CFFF7ACFDBD4605B090BD0404040010020B40FBFBFBFF80B584B000AF021C3960FB1D1A7080239B05FB6010
:401DC000FB1D1B781F2B02D9002000F07FF8FB1D1B7810339B00FA68D3181B68BB60FB1D1B7810339B00FA68D3183A681A60BB68181CBD4604B080BD90B587B000AF0A1C8A
:401E0000FB1D011C1970BB1D1A70BB1D1B78032B02D9002000F05AF8FB1D1B781F2B02D9002000F053F8FB1D1A7803231340DB0006337B613C1C1334FFF757FD031C2370D3
:401E4000FB1D1B789B08DBB29B0014495B181B68FB607B690322111C99400B1CDA43FB681340FB60BB1D1A787B69111C99400B1CFA681343FB60FB1D1B789B08DBB29B00D6
:401E8000064A9B18FA681A603B1C13331B78181CFFF72FFDBD4607B090BDC04600E400E080B582B000AF021CFB1D1A70064BFA1D11781F220A400121081C9040021C1A60EC
:401EC000BD4602B080BDC04600E100E080B582B000AF021CFB1D1A7001BEBD4602B080BD80B582B000AF786008E00C4B1B68181CFFF7F2FC7B680A4A9B187B607A68802390
:401F00001B029A42F1D8074B1B687A685343181CFFF7E2FCBD4602B080BDC046B00100200080FFFFA801002080B582B000AF021CBB1D1A80BB1D1B88044A12785343181CB7
:401F4000FFF7CAFCBD4602B080BDC046AC01002090B583B000AFFC1DFFF7C7FC031C2370074B074A126804218A431A6030BFFB1D1B78181CFFF7BDFCBD4603B090BDC04626
:401F800010ED00E090B583B000AFFC1DFFF7ADFC031C2370114B114A1268520052081A600F4B104A128892B21A600F4B0E4A126804210A431A600D4B1B683B600220FFF7AA
:401FC000DDFC30BF094B3A681A60FB1D1B78181CFFF78FFCBD4603B090BDC04600000B400C000B4052F1FF0F10ED00E000010B4090B583B000AFFC1DFFF777FC031C2370C9
:40200000114B114A1268802109060A431A600F4B0F4A128892B21A600E4B0E4A126804210A431A600C4B0C4A1268FF218A43F1210A431A6030BFFB1D1B78181CFFF759FCD0
:40204000BD4603B090BDC04600000B400C000B4050F1FF0F10ED00E02C000B4080B500AF074B01221A60074BC02212061A60064B00221A60054B03221A60BD4680BDC04657
:40208000D41000200000304004003040080F304080B500AF054B054A1168054A12680A43802109010A431A60BD4680BD04003040D410002080B500AF064B1B78002B04D1AD
:4020C000FFF7CCFF034B01221A70FFF7E1FFBD4680BDC046D010002080B582B000AF78600A1CBB1C1A80BB1C1A887B681A60BD4602B080BD80B582B000AF78600A1CBB1CD0
:402100001A80BB1C1A887B681A60BD4602B080BD80B582B000AF021CBB1D1A80BB1D1B88181CFFF701FFBD4602B080BD80B500AF00F068F8BD4680BD80B500AF00F06CF854
:40214000BD4680BD80B500AF00F066F8044B181C00F024F8032000F02DF8BD4680BDC0462D22000080B500AF024B181C00F004F8BD4680BD2D22000080B582B000AF7860C3
:4021800000F04AF87B68181C00F008F8032000F011F800F037F8BD4602B080BD80B582B000AF7860024B7A681A67BD4602B080BD0000002090B585B000AF021CFB1D1A7020
:4021C0000623FB603C1C0B34FFF78FFB031C23700B4B0B4A1268C021101C8843011CFA1D1078FA68041C9440221C0A431A603B1C0B331B78181CFFF77CFBBD4605B090BDB0
:402200000CE400E080B500AF024B802252011A60BD4680BD00E100E080B500AF024B802252011A60BD4680BD80E100E080B500AF0FF04AFCBD4680BD002934D00123002230
:4022400010B488422CD301242407A14204D2814202D209011B01F8E7E400A14204D2814202D249005B00F8E7884201D3401A1A434C08A04202D3001B5C0822438C08A042BB
:4022800002D3001B9C082243CC08A04202D3001BDC082243002803D01B0901D00909E3E7101C10BC7047002801D00020C04307B4024802A14018029003BDC046D90000006E
:4022C0000029F0D003B5FFF7B9FF0EBC4243891A1847C046002941D010B4041C4C40A44601230022002900D54942002800D5404288422CD301242407A14204D2814202D2ED
:4023000009011B01F8E7E400A14204D2814202D249005B00F8E7884201D3401A1A434C08A04202D3001B5C0822438C08A04202D3001B9C082243CC08A04202D3001BDC08A4
:402340002243002803D01B0901D00909E3E7101C6446002C00D5404210BC7047002806D003DB0020C043400801E08020000607B4024802A14018029003BDC0461900000011
:402380000029EBD003B5FFF7A7FF0EBC4243891A1847C0467047C04670B50E4B0E4D0024ED1AAD101E1CAC4204D0A300F35898470134F8E70FF0C8FE084B094D0024ED1A9A
:4023C000AD101E1CAC4204D0A300F35898470134F8E770BD5421010054210100542101005C21010030B50023934208D0C55C0133CC18013C2478A542F6D0281B00E000207F
:4024000030BD10B50023934203D0CC5CC4540133F9E710BD031C8218934202D019700133FAE7704710B501F097FA10BD10B501F0A9FA10BD10B500F0EFF810BD10B5074991
:40244000044609780220002907D1204601F0C8FA002802D1204609F0EDF810BDC602002010B506F0B9FB01F08DFA01F0B1FA01F0CEFA00F0DBF800F0E5F8024900200870B2
:4024800010BD0000B4010020F7B51F4E0024307815460F46002804D00824B76075802046FEBD002F00D1012401F06CFA0098002805D0172D03D301204002854201D901243C
:4024C000EBE7002CE9D12946384600F023F80400E3D1706800F01CF80400DED1706800F015F80400D9D101F055FA0400D5D1009806F05CFB0400D0D106F072FB0400CCD1EA
:4025000001203070C9E70000B40100200020704700207047F8B50D4607460026FFF722FEFFF70AFE00F046FA040065D100F0D2FB040061D13449084600F0EEFD0404240CE5
:402540005AD1A80705D0A807800F0421081A401985B2172D02D968002E3886B22B48301881B2384601F0DCF8040045D1284F03460246002825D127495E008E5B294610319A
:402580008E4207D99000C01941800221521C4170D2B215E08E420BD10020787690001D49C0194680891FC95C891C4170012012E0052A06D116480646143641830220707140
:4025C000012014495E008E5B9100C9194E80114EB61FF65C4E705B1C521CDBB2D2B2062BC7D30B4800F084F8002C05D100F09CF807490120891E087000F0EEF9002C01D027
:40260000FF20F8BD0020F8BD5D260000940C0000C20100208621010010B503480078012801D100F00DFF10BDC001002010B500F0B3FB002803D100F0D3F9002800D0FF20E4
:4026400010BD000010B500F0C3FB00F097FD02490020087010BD0000C00100207047000010B5011F0878034A8000105800F0F8FF10BD0000D810002010B50446044980001C
:40268000085800F05BFF002801D00470001D10BDD810002038B5044692B2C9B2684600F073FF024AA1000098505038BDD810002070B50B49064600204C6805466178002903
:4026C00008D06188B14202D32078FFF7D5FF002804D1241D6D1CEDB2082DEFD370BD0000E401002010B5002801D0FFF7B9FF10BD70B50B4E0446002570606178002905D093
:4027000062882078121D0023FFF7C4FF6D1C241DEDB2082DF1D3024800F0F4FFB06070BDE4010020002070471CB5002469460C70142001902346054A05480CF089FD0448AC
:402740000068401C00D1FF2420461CBDA5270000F00100203EB5124A0146FF2000230124126800290DD0012914D0042908D104206946009308814B8110460CF064FD80B254
:402780003EBD6846009304814381694610460CF055FDF4E768460093048143816946EBE7F001002070B54589046841680089030000F026F806240408081D2124002005F0F3
:4027C000CBF91BE0022908D0C8B22A4621460AF0C9FF2046FFF786FF10E002202A4621460AF0C0FF2946204600F018F806E000200CF01AFA02E020460CF0B0FD002070BD58
:4028000030B47446641E2578641CAB4200D21D46635D5B00E31830BC18470000014B0022DB681847F401002070B5448905680089022803D0032809D0FF2070BD2246094CC1
:402840000023A46829460120A04708E0FFF7EEFD241DA2B200232946022006F08AF8002070BD0000F401002070477047024800214160018041807047F401002070B50C46C7
:40288000002186B016460391012802D0022859D116E003A9012006F0C4F801281BD1039D324621462846FFF7ACFD0095287801900220694608814E816846FFF7B5FF41E004
:4028C000214D002B686809D0049004A9022006F0A8F801281DD0022006B070BD002812D0298840182146FFF78CFD28880024801980B228806988091D884206D12C80134883
:40290000FFF792FF03E00320E6E788421AD96C6018E004986860E278A378110219430B4A698000231060E3565360032313815181A1788170E178C170617841702178017003
:40294000042028800020C7E7F4010020F81000203EB515460C46022803D004280CD000203EBD0091019002206946088107484A8100680CF068FC07E00AF0F4FE044B00221E
:40298000DB6829462046984701203EBDF0010020F4010020014AD16090607047F4010020034801688068081A0A214843000970470411002010B5FFF7C5FB542204490548B2
:4029C000FFF71FFD03490120C870002010BD0000962101005413002010B5FFF7A7FB10BD0020704770B5134C2368002B08D0207B1149C20705D04008400020738868A08023
:402A000070BD88680B4AA18880B29268814203D90A4D691A091802E0814202D2411A5118A160A080A0689842EAD300F015F80CF027FC70BD04110020C0102E40FFFF00007E
:402A400010B508461946FFF7A5FF10BD704710B5FFF77EFF10BD000003480021016041608160C160704700000411002010B502000DD0FFF7F1FF074C0321207B08432073EB
:402A800010010A21FFF71CFC2060002010BDFF2010BD00000411002000B504480A21806848430209FFF7D8FF104600BD041100200248007B8007C00F704700000411002078
:402AC00070B558490868002802DA574B01221A70022290430860554800695249C00B4031096A08426CD0012000F0C2FA4F4850497C30FFF7FFFA4B480E216C30FFF7FAFA38
:402B00004A4820218430FFF7F5FA484814219C30FFF7F0FA4548FF21C131A430FFF7EAFA4248FF212F31B030FFF7E4FA3F484149BC30FFF7DFFA3D483F49AC30FFF7DAFA2E
:402B40003D493A48491CB430FFF7D4FA37483B49B830FFF7CFFA35483949CC30FFF7CAFA324838490830FFF7C5FA30483649A830FFF7C0FA2D4835498830FFF7BBFA2B48B1
:402B800033498C30FFF7B6FA28481921C9029030FFF7B0FA2F4D287E697E0C020443A87FE97F2D4A090201432C48914201D1072C08D035229201914208D1042C05D005E00B
:402BC000FF2070BD0146042400E0014617486C30FFF790FA154821467430FFF78BFAA87EE97E0902014301204003814201D0002900D11B490D487830FFF77CFA2A7F687F6A
:402C0000010218481143814204D01748814201D0052901D113490A3904488030FFF76AFA002070BD00F02E400402002000002E4055650000320300002F3F0000310200008F
:402C400010520000EC160000FA12000031D000003AE30000C0F0FF0F580B0000580D0000022000000F0F00000505000070B50646581C80B245086D00002408E0304600F0B3
:402C80007FF81055000A1119A41C4870A4B2AC42F4D3D80705D0D0182038D15CC47FD454C17770BD30B50A4C002100195B1E07E0541864782502545C2C430480891C89B2C9
:402CC0009942F5DB994201D1515C018030BD000000102E4010B5FF2000F0CAF90F49FF2048700E481021801D41800121417001700A490020C91C4870FFF7E2FE04000AD12F
:402D000000F0DEF807210648FFF7E6F9044807211830FFF7E1F9204610BD000004020020CC112E4030B504465B1C1804450C002308E0204600F024F8241D59005B1CA4B25B
:402D400050529BB2AB42F4D330BD000070B500210A4D5B1E0AE0541864782602545C344346193480001D891C80B289B29942F2DB994202D1515C4019018070BD00102E4062
:402D8000014940180088704700102E40014A80180180704700102E4010B50B490020487000F08EF8002000F089F9002000F076F907210648FFF790F9044807211830FFF7FC
:402DC0008BF9002010BD000007020020CC112E4010B506480078012803D102210448FFF789F902490020C91E087010BD0702002070F02E4010B50B46062812D006DC0128C0
:402E00000CD0032801D1FFF7C7FF10BD0A28FCD00B28FAD105480078107010BDFFF75AFF10BD1146184600F065F910BD0A020020F8B5204DAC6A0127A0071F4E002816DA86
:402E4000307806280ED1286A384328621B480069F903084381B219481030FFF74BF9042000F006F9134802212830FFF735F9E00711D0062000F0FCF80F49FF20C91E4870F0
:402E80007078002802D1686B38436863094801212830FFF721F9E0050BD53078042802D1052000F0E5F80348FF2101312830FFF713F9F8BD40F02E400702002000002E40FC
:402EC00010B503212348FFF715F90120FFF720F920483038406A204C80076178800F890001431C480C38FFF705F96078002808D0401E022181401820FFF742FAC000083888
:402F000000E0B82081B21548FFF7F4F81348032109021438FFF7EEF810481149B830FFF7E9F8452189010F48FFF7E4F80D480321001FFFF7DFF80C490C48FFF7DBF80B4801
:402F40000B496038FFF7D6F8084801218838FFF7D1F810BD70F02E400A020020D8102E4090890000041E2E40FF0F000058122E4020900000044800684007400F022801D00F
:402F8000002070470120704700010B4000B5FFF7F1FF002805D009480168C908C900016000BD0748016A490849000162054801690122D2039143016100BD000000010B4067
:402FC00040F02E4000002E400849087806280BD148780749002803D1486B400840004863C86A01221043C862704700000702002040F02E4001480078704700000702002007
:4030000002484078022800D0012070470402002000B50300FFF7F4FB080D050D0B070507090D012000BD032000BD042000BD022000BDFF2000BD0000074A9168D26889B285
:40304000064B92B2994204D105498A4201D1012100E000210170704780002E4033D000003FE3000001494870704700000702002010B50446FFF760F8072C01D9FF2C01D178
:4030800002480470FFF752F810BD00000702002001494870704700000402002010B5064A012805D01921C9021046FFF723F810BD1D21C902F8E7000090002E4010B50A4AF2
:4030C000141D012808D009491046FFF713F808492046FFF70FF810BD04491046891CFFF709F80349491DF3E788002E4031D000003AE300000078074AFF2803D04C2804D981
:40310000553803E01078087070474F3808701070704700000602002010B50F4A002313600E4A13600E4B18600E4801600E49012008600E490860000290600E490C4808605F
:403140000D4914300860FF381538506000F0BEF800F0CCF9002010BD28020020100200203C020020400200202C0200201C0200201412002020020020340200200020704754
:40318000014610B50020002910D0094B1A689C685118A14209D25868196080188A0704D08A07920F891A091D196010BD002010BD10020020F8B50024164E671E321F3D46B5
:4031C0003168136806E01422624310328A58521C1BD0641C9C42F6D36A1C14D02C461422544322460C3288500C214843FFF7C8FF3168002808510AD0316800201034085170
:403200007068401C70602846F8BD2546E4E73846F8BD000020020020F3B50026F64381B000281BDB1E490968884217D80299002914D01B4F142204463F1D54432546396844
:4032400010354859401C09D0FEF776FF38682F1F4159C359994203DBFEF768FF3046FEBD214608310091465801590C20704308180C220299FFF7C5F80948761C001D0068D3
:40328000C159B14200D100260549009A091D865008684159491C4151FEF748FF0020FEBD1C020020002803DB07490968884202D90020C043704704491422091D09685043DD
:4032C00010300858704700001C020020F0B500200D4A451E0346171F50600FE014260146714314680E1DA3510C461668083433511668083435511468401C63503968884206
:40330000ECD30020F0BD000020020020F3B50026F64381B0002841DB2349096888423DD8029900293AD0204F142204463F1D54432546396810354859401C2FD0FEF7FCFE9B
:403340003868415900292BD0211D009146580C21005971430F46C1190C220298FFF751F811480021001D0068761C00590C34C0190160416081600C48001D00680159B14206
:4033800000D100260849009A091D865008684159491E4151FEF7CAFE0020FEBD3046FEBDFEF7C4FEFAE700001C020020FEB504460D4600201E49089E0860471E0090019022
:4033C0000290002C11D0486885420ED2002A0CD0002E0AD0642E08D808460C3001681C2068430C18207A002801D03846FEBD0120226020721846FFF7DDFE6060401C13D02A
:403400006681A6810A4827610C3067610179A94200D205710021684601810A462846029B00F040F82846FEBD00202072DDE700002802002038B50124009400F039F838BD7A
:40344000FEB50027164EFF433D4600240EE01C20316860430818017A002906D04068FFF721FF002801D0254603E0641C3079A042EDDA681C12D01C2130684D434419FEF731
:403480005BFE69466068FFF741FF0546FEF74EFE002DD9D1216868468847D5E7FEBD00003402002038B50024009400F001F838BD1FB500220C49541E0A60002811DB496861
:4034C00088420ED808491C220C31096850430818406801A9FFF7A0FE401C02D0002004B010BD2046FBE7000028020020F0B50021114A4D1E174611710C3F0B46BD6016E0CB
:4035000008461C2460431668041D355114680646235014680836A3551468361DA353044616680A34335318301468491C255078688142E5D30020F0BD3402002038B50021CD
:403540000091002811DB0F49097888420DDA0D4D04010C3529680859002807D0201D0818694600F05FF9002801D0002038BDFEF7E3FD28680F34015D491E0155FEF7D6FD9E
:40358000009838BD44020020F7B582B00025ED43029800240E460560002A49D0002E47D02D48D21C02402D48174601780C30006805E022018258002A0FD0641CE4B28C4283
:4035C000F7D3691C3ED02C01211D40180191314600F016F900282BD101E02546F1E71F480C30016820460C300F521C480C30016820460E300E5419480C30016820460F3092
:403600000E543846704300F0ADF814490C310968002808510CD00024009011E00F480C30016801980818009900F017F9002802D0012005B0F0BD0098C019641CE4B2009073
:40364000B442EBD30298054905600C310879401C08710020EDE70000FCFF000044020020F8B50D4600216A468C461180002839DB23490978884235DA214B04010C331968FA
:403680000A59002A2ED020460C300B5A801C0E5C184670438018954224D3854222D2002006E007465F43BF18AF4206D0401CC0B2B042F6D36046002814D0114E271DC819EE
:4036C0000C366A46294600F0F2F800280AD168460088012808D030682946C01900F0BDF8002803D00120F8BD0020F8BDFEF724FD30680F34015D491C0155FEF717FDF3E73D
:403700004402002003460020002B06D0034A5168906852884018511A198070474402002070B5002400F0DCF80D4E002132460C3271600EE0200113680546195013680C355E
:403740005953AD1C13680F3059551368641C1954E4B230788442EDD31171002070BD000044020020014610B5002000290CD0C91C064B8A08596892005C888A18A24202D87B
:4037800098685A60401810BD002010BD44020020F8B5002827DB19490978884223DA174C05010C342168485900281CD028460C30085A009028460E300E5C401C0E54206877
:4037C0002F1DC01900F064F800280CD12068002445590EE0094829460C300068C01900F03CF8002801D00120F8BD00982D18641CE4B2B442EED30020F8BD00004402002006
:4038000030B50D4604000BD0A800FFF7ABFF6060002805D000202570C0436080002030BD012030BD70B50D46040005D0002D03D00220205E002801DA012070BDFEF77CFC0A
:403840000221615E60688900405828606088401E6080FEF76BFC002070BD70B50D46040007D0002D05D002212078615E401E814201DB012070BDFEF75FFC6088401C00B2C6
:403880006080616880000D50FEF750FC002070BD10B5040009D0227800216068FEF7BAFD0020C0436080002010BD012010BDF0B500231D46002802D00224045F0AE001208C
:4038C000F0BD46689F00F6598E4201D1012503E05B1CDBB29C42F4DA15700020F0BD0000054B11221A70054A1180064A04491160054908607047000044020020460200209C
:4039000044120020500200204C0200200148007870470000580200207CB505460024FEF785FDA8796946087000A8062229460130FEF767FD0021684604F06CFB0C2804D0E5
:40394000072804D01F2804D004E0022402E0042400E0272420467CBD10B502280BD0032802D0042809D102E000F0DCF805E000F0ABF9FF2801D100F0BBF9FFF73BFBFFF7A0
:4039800047FB10BD10B500F0E3F9FFF733FBFFF73FFB10BD10B503240CF07AF9002810D10CF01EF900280CD105F08AF8002808D100F0AAFB002804D104F086FD002800D150
:4039C0000024024900200870204610BD58020020FF20024A00211170704700005802002070B50025044600280ED0A07901280BD8FEF71CFDA0790028204602D002F09EFF00
:403A000003E002F053FF00E00125284670BD704710B5FFF7EFFA012801D1FFF7F1FA10BD38B504460120002C20D0617801291DD800290BD0FF25E535FEF7F8FC2846FFF7BF
:403A40009FF9C0B22070072803D00EE0FF25CD35F2E70020694608706846FFF7EDFA69460878012801D108202070002038BD70B504460120002C1FD06178012902D92278D1
:403A8000092A19D8002906D0FF25E53520780726092803D003E0FF25CD35F7E72670FEF7C5FC2078082808D00020FFF707FB21782846FFF76BF9002070BD0120FFF7FEFA34
:403AC0002670F4E770B50D46040001D0002000E00548002802D0012102F0DAF82946204602F03CFC70BD0000C813002038B5054600200446009022466946284600F09CFF72
:403B00000098002801D00CF0A5F8A878214602F0E4F9A878214602F0D3F9641CE4B2052CE9D338BDF8B5624CFFF764FA012846D160480078002842D002F094FB0028FAD00C
:403B400003F072FF0028F6D05B4E7078C00703D000F047FC0128EED0B07E0028E7D170780025002878D0000707D5AC20FFF708F9070B00F061F9384321D14F4841786846B6
:403B800003F030FE4D4F06462079B9784018C1B2B14271D802F066FB002810D0464C203402F08DF96846008802F0B9F902F062FA43490988884203D10120FFF759FA74E0D1
:403BC0004049012008703C48807B00282BD04034608A002827D0E07E002824D1A1200001FFF7CEF8208A4000B04218D97878002815D1A12424012046FFF7C2F802218843D2
:403C000001462046FFF7C2F8FF24F1342046FFF7B7F80321090201432046FFF7B7F83878002800D03D7002F0BDF90120FFF71AFA244C08E0FEF78CF9FFF7DCF906282CD067
:403C40002078002829D0FFF7D5F9062825D020780128EFD021E0FFE702F004FB002824D0142002F05CF9174C0120207002F09AF90020FFF7F7F909E015E0FEF769F9FFF7EB
:403C8000B9F9062809D02078002806D0FFF7B2F9062802D020780128EFD0207801288BD1FFF774F925700020F8BDFF20F8BD00009413002004020020A81300205E0200208E
:403CC000700200205902002010B50848FF244078002809D102F0C6FA012805D1FFF778F80720FFF7C5F90024204610BDA813002038B5FFF77FF9012801D0002038BD02F045
:403D0000B1FA00280AD0114C6078C00703D000F068FB012802D0A07E002801D0FF2038BD617800290FD0684603F05CFD022806D96846008802F0F3F8012002F039F903202F
:403D4000FFF796F9D9E70020F7E70000A813002038B5FFF74FF9042819D0052817D006281AD0032842D007280AD100206946087002460120FFF73EF8FFF73CF90128FBD176
:403D800038BDFEF7E5F8FFF735F90128F8D0FFF731F90128F5D138BD02F028F905E0FEF7D7F8FFF727F9012803D0FFF723F90128F5D1A12424012046FEF7E2FF01220E49B4
:403DC00083079B0F0A70022BE5D149880029E2D0104301462046FEF7D9FF2046FEF7D0FF410849002046FEF7D1FF38BD02F002F90120FFF73DF938BD5E020020F8B5064635
:403E0000002402F0ADFE0546304602F0C1FE00210346012632468A40174610462F401840002F03D0002801D1224394B2491CC9B20529EFD32046F8BD70B500252C460A4E5C
:403E400003E0002C01D0002000E030460079002803D02046FFF7D2FF0543641C2406240EEFD0284670BD0000C81300201CB50020694648706846FFF7D3FD01AA69460A2082
:403E8000FEF7B8FF6946042008561CBD10B50C4601F076F9002809D00179002906D0C1788078224602F008FB002010BD022010BD0148007870470000941300204030C07E04
:403EC000002800D00120704700B500F001F800BD88214843064940186030417F491CC9B24177052901D300214177C8B270470000A813002013B501F043F904000BD001F028
:403F00009AFC002807D0214601AA0A310620FEF771FF00201CBD02201CBD000010B50C4601F02EF900280AD001F085FC002806D0224604490A20FEF75DFF002010BD022040
:403F400010BD00007D130020F3B581B0074601460026029802F0FCFD0446002F01D0002500E0154D002D21D0284601F03FF9032C04D13946029802F015FE064638460299BF
:403F800001F09EFF032C06D0002C10D00121384601F01AFA03E03146384602F0B7FF284601F05CFE0221284601F072FEFEBD3846029901F085FFFEBDC813002070B5044624
:403FC000002503F0A5FB002801D00C2070BD2078611C02F06BFBFF2802D01F25284670BD02F0B8FBFF2804D02178621C01F0DAFEF4E70725F2E710B503F08AFB002801D0DC
:404000000C2010BD02F02AFB002010BD70B50D46044610210BF05EFD1021601806460BF059FD334610221946204603F09DFB102130460BF04FFD02202870204604F09CF962
:4040400070BD70B504464078217802028006850FE0781143A67809050002090D0643084601F08EF8002812D0022D10D0032D0ED0002E08D00179092909D0002907D021461E
:4040800000F0A1F870BD0089002104F0AAF820460BF0E0FD70BD0020704770B50446002503F036FB002801D00C2070BD2078611C02F0FCFAFF2802D002F03EFA00E01F257A
:4040C000284670BD10B504F0FFF900F0F6F8002010BD10B5044600786178E2780843A17811430843217908436179084305D003F001FB002803D00C2010BD122010BD2046C5
:4041000002F01CFC002010BD10B5044803F01CFC02F01CFA00F004F8002010BD64130020F8B5114D00266E706E736E716E76AE76EE766E75AE70EE70AE712F46EE73012044
:40414000B03778723F2078719B20B87100F00AFA0024204601F036FB641C2406240EF8D03E72FE71AE73F8BDA813002070B505460E46084602F0F4FC0446304602F008FD83
:404180000121A9400A46224001400A4301D0012070BD002070BD10B50446084602F0F8FC0121A140014201D0012010BD002010BD10B5FEF71FFF032804D101F01BFF01200F
:4041C000FEF756FF10BD70B5044600790D4609281CD000281AD020464030817E491C8176204601F03BFDA078FFF76EFE064602462946204600F00CF8002806D1A078314619
:40420000FFF760FC28460BF025FD70BD0846FAE7F7B5054648780C468006870FC8788978000282B0014368468180284601F00EFB060007D021462846049A00F091FB30460E
:4042400005B0F0BD384600F039FC0746034601AA2946204600F0CAFA68468088231DC0B20090A878FF22049902F032F8684680883B46C2B2A878049902F0DCFBDFE770B561
:40428000002500242846FFF7B9FD060010D03046E040C007C00F07D02146284601F003FE21462846FFF750FE641CE4B2052CEED36D1C2D062D0EE4D070BD10B502F046F9FC
:4042C000FFF72EFF0BF02EFD002010BDF8B5002400F081F80123012800D10124104F00203E4620360425082203E0002801D0002100E031460979002907D001290BD0022959
:404300000BD0114681402143CCB2401C0006000EEBD07C70F8BD1C43F7E72C43F5E70000A813002010B5FFF7D1FF10BD10B50B4681791943817103D08078114602F03EFB76
:4043400010BD10B582798A43827102D1807802F04DFB10BD70B5FF25D53502242846FEF70FFD0C4A9178002901D0022906D1137852789A18282A01D9032402E0032900D1A2
:4043800001244105490DE00201432846FEF7FEFC70BD00005A02002010B500F022F8002807D0012805D0032801D0042801D0002010BD012010BD014610B50020C90701D0A3
:4043C00000F009F810BD014610B50020C90701D000F001F810BD10B52020FEF7D1FC000A10BD10B51820FEF7CBFC410501D5042010BD4007800F10BD38B5044640060CD517
:40440000684601F007FE0220FFF78CFF072002F0B9F96846007801F03FF9200613D5FFF7E0FF01280FD1684601F0F4FD6846007800F09AFA072002F0A5F9012001F076FCBA
:404440000220FFF76FFF38BD10B5034A0178117002F0A7F9002010BD5A02002010B50446FFF7B9FF002801D00C2010BDA27B01211848002A827801D00A4301E0520852009D
:4044800082706279012A0FD0C17849084900C170207901280CD06188208802F0A5FF2080207904280BD00DE0C2780A43C270EFE7E01D02F02BFA0848808C208002E0E01DB1
:4044C00002F024FA054920798870204602F078F9002010BDA8130020541300205A02002038B50478FFF777FF844201D10C2038BD002C18D0072069460870FFF74DFF0128DE
:4045000007D10121684600F08DF8012801D0092038BD6846007802F035F9FFF71BFF02F07FF9012010E0FFF737FF012806D1684601F070FD6846007800F04AFA072002F0CA
:4045400021F902F061F90220FFF7ECFE002038BD10B5034A0178517002F008FA002010BD5A02002038B568460BF00AFB002801D01F2038BD01210098C90201804180002561
:4045800005714571857107214173857302F018F9009C202200212046FDF73CFF25702A460021601CFDF736FF204602F0FAF8204602F0DCF900980BF04DFB042200210248C0
:4045C000FDF728FF002038BD5A0200200346084800B5834209D8184600F0D2FD002804D00089984201D1012000BD002000BD0000FF0E0000074A9179491C8906890E91711D
:4046000038220A4092014907090E11430843024908407047A8130020FF0E0000C006C00E70470000F8B507460E4600240D4803E0002C01D0002500E005462979002905D029
:40464000641C2406240EF3D00020F8BD204601F0B9F82E712046FFF7CDFF28813C700120F8BD0000C813002010B503F0B1F80222002100F003F801F011FF10BD10B5094B59
:4046800040074907000F090F185A595A40185043C0086421FDF714FE002800D1012080B210BD0000EA210100F7B53D20405C88B016460C46002829D0307869460872002512
:4046C0002046FFF7FBFB012800D00125204603A938300191009023460327A17E34332A46206A03F04BF902A8089900900B46019120463A4603A9243003F018F802466846C6
:40470000007A3070204601F049F810460BB0F0BDFFB587B00C4605461078694608723D20005D1746002826D000262046FFF7C6FB012800D00126204603A93830019100909C
:404740002346A17E34333246206A03F017F902A80090291D019120462B1D03A924300A9A02F0E4FF02006846007A388002D1204601F014F810460BB0F0BDF7B53C20405C92
:4047800088B015460C4600280CD0287869460872002806D000262046FFF790FB012803D003E01F200BB0F0BD0126204603A938300191009023460327E17E34333246E069D9
:4047C00003F0DCF802A8089900900B46019120463A4603A9243002F0DBFF02466846007A2870204600F0E4FF1046DBE7FFB505463C20405C87B016460C46002810D00846F7
:4048000001F024F801280BD0308869460883002809D000272046FFF751FB012805D005E000200BB0F0BD0220FBE70127204602A93830019100902346E17E34333A46E0697B
:4048400003F09CF806A80090291D019120462B1D02A924300A9A02F09BFF02466846008B30806846008BA870000AE870204600F09FFF1046D5E770B50D460446FFF71EFB03
:4048800001280AD0E87AA97A00020143A07801F0C3FC012808D0002070BD00222421204602F0ECFC242070BD28214C200155204600F09AFB282070BD002801D0002000E098
:4048C00003484030C07F012800D0002070470000C81300200146002049070ED50021084B03E0002901D0002200E01A461279022A04D0491C0906090EF3D07047012070473E
:40490000C81300200146002049070ED50021084B03E0002901D0002200E01A461279022A04D0491C0906090EF3D0704701207047C813002010B5044680346068002803D046
:404940000BF09CF90020606010BD4030417070474030817070474030017070470171704792001018C166704770B53C2501F0F8F8040004D020460021433001F0EDFB294630
:40498000204600F0C0FB002C02D0A07801F07AF870BD000010B5002801D0002000E00348002802D0008903F063FC10BDC813002010B5002801D0002000E00448002804D094
:4049C0000179072901D100F041F810BDC813002010B501F0C5F8002802D0807801F052F810BD00207047000070B50546008A00281ED010491122897A1140C90618D52946EB
:404A000040314A8A098A521C4A4392B2D10800D10121540801E0621A94B2A042FBD9FEF775FF012804D1298AA878224601F0E4FC70BD00005413002000230B60052A04D224
:404A400092001018C26E0A60C366704738B5044600200090A079002814D14020015D052901D00E290ED168460BF09AF8002809D12046009902F0EAFB03481021C28A2046E1
:404A8000FFF754FC38BD00005413002010B50B4604460146184602F0B9F8002802D020460BF0E2F810BD13B5044601AA11460620FEF7A0F96846818861811CBD002800D157
:404AC0000220704770470000F8B504462346401D543300909A1EA078911E01F0AAFA25464035A88A298A8000FDF7EAFB401E81B2688A884203D96982A07801F0EAFF2046B4
:404B00000021433001F028FB8020FEF739F9E88102F05EFEE989891C8AB26179FFF7AEFD01F0BCFC02F054FE2A8A6179FFF7A6FD074601F0A5FC688A00280BD0FF26F1364D
:404B40003046FEF71DF90321090201433046FEF71DF902E0002001F0AAFFFF206130FEF70FF96E8A002E0BD070431049FDF708FC0004000C01D0401C80B20D49488002E003
:404B80000B4800214180288A704381B2A07801F0FBFE2837B9B2204602F02AFCE98AA07801F04AFEA07801F0AEF9F8BD710200005E0200207FB504468034616805460E4628
:404BC000183108226846FDF71CFC31462031082202A8FDF716FC102168460AF07BFF6068102108300AF076FF60682B46083024331022694602F0B8FD7FBD10B5044608212F
:404C0000FFF79FFB10212046FFF79BFB207905281FD006281DD008281AD12189002003F09FFA072020712046FFF748F9014620464030012913D00E21017000210176204663
:404C400000F02CFF2046FFF775FE2046FFF7CCFE10BD20890122002103F066FAE1E70521EAE70000FFB581B01F4604460821FFF768FB10212046FFF764FB2079082803D0BA
:404C8000092804D0042203E00422012501E009220025204600F0C6FD264600204036307022712046FFF746FE0398002D02D0012808D00BE001280AD120890022029903F098
:404CC00033FA04E02189029803F04AFA012700203076012F04D0204600F0E0FE05B0F0BD02983073204602F0F5FA054605480121C28A2046FFF71AFB002DEFD109202071FE
:404D0000ECE700005413002070B50C460546FFF7D5F8012809D108212846FFF712FB0023012221462846FFF79DFF70BD10B5044600F078FD2046FFF7FDFD0021403421702D
:404D400010BD70B505461A24FFF7B8F8012809D108212846FFF7F5FA0023012221462846FFF780FF70BD0000F8B50446002000900E4668460AF014FF002801D00D20F8BD45
:404D80008420005908212030009D00F0F4F920460421383000F0EFF9002E02D1204600F07FFD2946204602F0E1F90E480821C28A2046FFF7BBFA204600F0D7FE25464035DD
:404DC000002808D0204600F023F8002801D0092028700020F8BD08202870204600F03EFFF7E7000054130020014610B540310A460978082906D0092907D00A2901D100F0A8
:404E000091F810BD0B20107010BD00F001F810BD70B50446007925464035052805D0062803D008280FD00C2070BD03220621204602F024FA0D480821C28A2046FFF776FA63
:404E40001120287010E006202873204602F042FA0646AA8A0A20424301212046FFF766FA002E01D109202071002070BD5413002038B504460020009068460AF091FE002843
:404E800001D00D2038BD2046009D00F08BF908202071204600F004FD2946204602F098F900213D2001550F2040210855204600F0D5FE002038BD00B5024600F0B3FC102154
:404EC0004032117000BD10B50446FEF7F7FF012809D04020005D112805D100231A4606212046FFF7BFFE10BD10B5FFF786FE10BD38B504460021684600910AF051FE002896
:404F00000CD12046009902F0DAF905480821C28A2046FFF70BFA0D204034207038BD00005413002038B504460021684600910AF037FE002801D00D2038BD2046009902F02E
:404F4000B3F905480821C28A2046FFF7EFF90C2040342070002038BD5413002000787047F8B50025002801D0002400E01A4C002C28D0204600F05FFC002823D0207903289B
:404F80001CD005281CD026464036B18AA07801F009FDB078012815D10021204601F053FE274680373868002802D00AF067FE3D600020B0702079072805D007E0042000E03E
:404FC00006202071F8BD2046FFF70EFD0221204600F05EFEF8BD0000C813002010B54C22115400F046F810BD10B50446FF21FFF7A8F909202071A07801F004FD10BD00006F
:4050000038B5FF216A461180002801D0002400E0064C002C08D011460620FDF7EBFE684601882046FFF73FFD38BD0000C813002010B504468079002809D022214C200155A8
:40504000FF212046FFF77DF9204600F012F810BD10B5037902464032002B03D01173092B02D003E0002100E02221117300F001F810BDFEB5044600890027019027812079AE
:4050800026464036002817D0012815D002280AD112E002AA6946204601F0A6FD002807D100980AF0E1FD204601F0C6FD0028F0D02046FEF71BFDB7762546803528680028BB
:4050C00002D00AF0DBFD2F606868002802D00AF0D5FD6F60317B002902D0019800F044F8A078002100F028FF2046FFF7BDFAA07801F07CF8A07800F0C5FC0B20FFF712F9D7
:4051000000F004FCFEBD70B50E46054602F05CFB044606702846FEF7D1FE014601204140204661700C3001F000F8002D10D02889608028464030C1782171002E10D1697948
:405140006171018AE180418A2181808A608107E01820FDF715FEC005C00F207100206080204602F0A6FF70BD0A4610B50146002003F096F810BD10B50AF088FA10BD0000CC
:4051800000B50146FFF74AFA002801D0002000E00348002802D002898A4200D0002000BDC813002038B5044680346068002806D168460AF005FD002801D100986060606806
:4051C00038BD000010B5014600F040FB0128887802D0FEF77DFE10BD88214843024940186030007F10BD0000A813002070B5054604464035A87F012811D1A1788820084A49
:40520000484380186030067F3046FEF7AFFF002805D10220A877A078314601F0ADF870BDA813002010B50E4CE079002816D0FFF726F80C48827FC17F808B00F06FFB0128F4
:405240000CD10020E07100F0EEFE0446AC20FDF797FD010B02D0204600F00EFA10BD000058140020A813002070477047490510B5490F0B00FDF7C4FA060704080C0C0F0719
:405280003E21FFF7ABFE10BD0821FFF7E1FE10BDFFF7EFFE10BDFFF7CBFE10BDF8B507460025002D01D0002600E0204E00F070FE3046403044890021418100F08FFE3046A4
:4052C00000F0B9FA01282BD1A00702D52846FFF747FEE00602D52846FFF792FEA00601D5FEF7CDFF600601D500F0CCFA200602D5284600F01DF8600702D5284600F0FEF9DC
:40530000380402D52846FFF753FB780402D52846FFF740FBE00703D021463046FFF7A6FF6D1C2D062D0EBCD0F8BD0000C8130020F8B5002801D0002400E0204C002C39D006
:4053400025464035A878012834D1E98AA07801F073FA2046FEF7B2FD01282BD002F038FA2A8A6179FFF78AF9064601F089F82836B1B2204602F03CF8E98AA07801F05CFAE0
:40538000FF206130FDF7FCFC6E8A0D4F0146002E11D0304648430B49FCF7F2FF0004000C01D0401C80B27880288A704381B2A07801F0EAFAF8BD0020F5E70000C8130020D6
:4053C0005E0200207102000070B50D46124A010001D0002401E014462034002C1BD0204600F034FA01280AD18820484380186030007FFEF7BBFE002801D101F0F5FE2046F6
:405400004030817E491B8176204600F027FC2089294602F0E6FE70BDA813002070B503460088FFF7ADFE040013D000F004FA00280FD02079092819D0254699784035297380
:40544000204601F047FF0646A878012803D0AA8A02E0022070BDEA880A20424301212046FEF764FF002E01D109202071002070BD0EB5002217216B460292198100905A8153
:405480000120029B00990AF06BFC0EBDF8B5184E0024F079002820D10025AC20FDF770FC000B21E0204600F073FEFDF769FC07462A46214600F032FA01280FD00D48012174
:4054C00087838577C477F171002D01D0002000E02030002801D000F0C1FBF8BDAC20FDF74FFC000B641CE4B20028DBD1F8BD000058140020A813002010B50088FFF740FEC4
:40550000002809D0014640310C460978082905D00B2903D00C2010BD022010BDFFF778FC002801D009202070002010BD70B503460088FFF725FE040008D025464035287876
:40554000082805D00B2803D00C2070BD022070BD8420005910220830991CFCF752FF2046FFF728FB2878082804D02046FFF7DAFC002801D00A202870204600F06FFB002028
:4055800070BD000010B50C46002121700088FFF7F7FD03000BD000F04EF9002807D009481121807A0840C00603D4112010BD022010BD022020701A8A1889002102F08CFE8C
:4055C000002010BD54130020F8B50F46002100910088FFF7D5FD040012D000F02CF900280ED0E079410641D4617E02264A07002A08DB8907402500291ADA2843E07135E035
:405600000220F8BD02F0E0F80021017021894180A1898180217E4170E189C1803E7005460178134802F0BEFB284602F0F9FD1DE0204600F011F9012806D068460AF0B0FA2A
:40564000002803D00720F8BD2A20F8BDE07900992843E071204601F067FE607E0421304360760448C28A2046FEF760FE0020F8BD1D040000541300203EB500220F236C46D7
:405680000292238100910190628169460EC900200AF066FB3EBD000070B5054600F060FA040024D003202071254600264035EE76E6702046FFF708FA01F0A6F80920FEF780
:4056C00031FEA07800F080FD0121204600F0E0FA2E706E70AE7000212046FFF714FD0649887B401C8873012001F0C0F970BD284601F088F970BD0000A813002010B5002806
:4057000001D0002400E00A4C002C0FD020464030417802290AD1002141702046FEF7CEFB002803D10221204600F0B2FA10BD0000C813002070B503460D460088FFF720FD63
:4057400004000BD000F077F8002807D012481121807A0840C00603D4112070BD022070BD20464030418A008A491C41430804C10C5888884201D2122070BD208220790728A1
:4057800002D12046FFF730F9022028702089002102F0CAFD002070BD54130020016A491C016204D1817E491C4906490E81767047C169491CC16104D1C17E491C4906490EF0
:4057C000C176704770B500250646002801D0002400E0114C002C1CD0882200212046FCF719FEA67000202646207140363070204600F018F8204601F01BFA0848208208481B
:40580000B577807A1121084000D001202075012070BD002070BD0000C8130020B80B000054130020002101628176C161C17620300177417770470079002805D0012803D0E5
:40584000022801D001207047002070474030807F002800D00120704740300078002807D0012805D0052803D00E2801D0012070470020704710B5807801F08AF9002800D07B
:40588000012010BD10B500F0CEFB0446AC20FDF777FA010B02D02046FFF7EEFE10BD000070B5054604464035A87F002823D1FF206075A0788821144A484380186030417F16
:4058C0008823491CC9B24177A078584380186030052901D300214177A0788821484380186030467F0677A1783046FEF73FFC002802D00120A87770BD0220A877A078314603
:4059000000F03AFD70BD0000A81300200020401C0006000EFBD0002070470000F0B515468207920F85B0C004C00E02926A469080002D01D0002400E0514C002C29D00846AF
:4059400000F026FC03906846808800280BD00298012845D0022843D003280CD03D20005D012872D086E00398FDF70AFA01462046FFF799F87EE00020029002A80AF0F0F8BF
:40598000002807D03D20005D012876D12046FFF705FF72E06846029E8388324600210398FDF764F90398FDF7EBF901462046FFF77AF8284600F0B9FA01AA21463046FEF718
:4059C00073FE002806D030460AF03AF93D204C21085528E0F5773146204601F077FA4CE000200090278968460AF0AAF8002802D0002005B0F0BD6846009E8388321D0021A2
:405A00000398FDF733F90398FDF7BAF901462046FFF749F8284600F088FA25464035287E00280CD103E02046FFF7DEFA25E001AA21463046029BFEF76BFE002806D0304607
:405A40000AF0F4F83D202873EDE710E00298FFF739F8390A000101433770717068468088B070000AF0703046FFF702FD05E02046FFF794FE284600F058FA0120B9E70000C4
:405A8000C813002010B5044A917B002901D0491E9173FFF797FE10BDA8130020F8B5074606464037B87F00283DD0B0788821009048431F4945186035287F0099FEF76BFB2A
:405AC000012831D0287F401CC4B2052C00D300240020B877FF276F772F77A87702460146009800F0C9FD717DFF2903D0304601F060F8777501F078FB00252F462246694635
:405B000030460097FEF798FF0099002902D03046FEF759FB641CE4B2052C00D300246D1CEDB2052DEAD3F8BD0320B877F8BD0000A813002010B502460021084B03E0002900
:405B400001D0002000E018460479944204D0491C0906090EF3D0002010BD0000C813002000B50120FFF7E6FF00BD10B5044601F02BFE218901808034616841606168283197
:405B8000816002F007FB10BDF7B50646087982B00C46092807D0A078F0770846FFF756FE012806D010E030460AF05EF8022005B0F0BDA1788820284A484380186030007F89
:405BC000FEF7D4FA012810D0A078FEF775FE01280BD037780121304601F0B3FA25462035062F36D00B2F0FD107E06846027C21463046FEF74BFF0D20D9E72046FEF75EF98D
:405C0000012801D1002028772046FFF7DBFA054604AA21463046FEF7B0FD01205F2108556946087C0090A07833463A46294600F04FFB69460A7CA0780323294600F0FAFEBC
:405C4000A0782946FDF73EFF30460AF00DF80020ADE70120D7E70000A813002010B502464032937F0021002B03D1927E002A00D00121064AD279002A00D000210279092A48
:405C800000D10121807800F0FFFE10BD5814002070B50C460646FEF711F9002814D1012C0ED935464035A87800280DD1687802280AD03079092807D03046FFF7DBFD044697
:405CC000204600F00EFE70BD0124F9E770B50D4601280BD0082808D1A8241146B020FDF755F829462046FDF751F870BD2020FAE710B501460820FDF749F810BD10B50446B2
:405D0000FF20F130012C01D1FF20D530002200F006FF1020FDF734F80349A043088001461020FDF733F810BD6202002010B504461020FDF725F80449A0430880014610207C
:405D4000FDF724F810BD00006202002010B50446012802D0082C07D102E0FF20D53001E0FF20F13000F0D0FE1020FDF709F804492043088001461020FDF708F810BD000032
:405D80006202002010B504461020FCF7F9FF04492043088001461020FCF7F8FF10BD000062020020F8B507460120B84085B214460E46012229467C2000F0B1FE324629469F
:405DC000782000F0ACFE6078217800020143E078A5780002054360792679000206430C2047430D2080013C182046FCF7CFFF241D29462046FCF7CAFF201D3146FCF7C6FF1B
:405E0000F8BD401880B270478B00034310B5D10191201943C000FCF7B9FF10BD70B505460C46407829780002014341200001FCF7ADFFE878A978000201430A48FCF7A6FFAC
:405E400060782178000201438320C000FCF79EFFE078A1780002014302480830FCF796FF70BD00001404000070B50D46044681B201208002FCF78AFF210C0448FCF786FF6D
:405E800081202946C000FCF781FF70BD0404000070B5054600242846FCF772FF641CA4B2102CF8D370BD10B50C460146B020FCF76DFFFF2021462D30FCF768FF10BD7047AC
:405EC00010B50C460146B020FCF760FF204600F051FE0021FCF75AFF10BD70B50C46054600F005F821462846FFF7DDFF70BD10B50C460146B020FCF749FFFF202146293078
:405F0000FCF744FF10BD10B50146B020FCF73EFFFF20002220211D3000F001FE10BD10B50146C020FCF732FF10BD010210B54D310020FCF72BFF10BD10B50402002901465F
:405F400008D0B020FCF722FF214675310020FCF71DFF10BDB020FCF719FF512000214001FCF714FF00210348FCF710FF21467631ECE70000240A000010B554210020FCF7DE
:405F800005FF10BD10B553210020FCF7FFFE10BD10B5034908884880FFF7C8FE10BD00006202002010B550210020FCF7EFFE10BD10B50E2400280CD0C420FCF7E1FE20436D
:405FC0000146C420FCF7E2FE51210020FCF7DEFE10BDC420FCF7D4FEA043F1E710B502484088FFF7CFFE10BD6202002010B5FCF7EBFF10BD10B552210020FCF7C7FE10BDDA
:40600000884201D8081A03E00022D243101A401880B2704710B504461820FCF7B1FE8004400F207010BD10B5B020FCF7A9FEC0B210BDF8B50E4601461C461546B020FCF7C7
:40604000A5FEFF20E930FCF79BFE0746FF200130FCF796FE3080FF200930FCF791FE2880FF200530FCF78CFE208079070698490F0170F8BD10B5C820FCF782FE10BD10B5A4
:406080000C46002812D05820FCF77AFE2070000A60705C20FCF774FEA070000AE0706020FCF76EFE2071000A607110BDFF20C130FCF766FE2070000A6070FF20C530FCF7FC
:4060C0005FFEA070000AE070FF20C930E8E7000000B5024A00F004F800BD0000FF7F000000B51346FFF78CFF984201D8022800D2002000BD10B50146B020FCF747FE024851
:40610000FCF73EFE10BD0000080A000010B52420FCF736FE10BD10B50146B020FCF736FEFF202130FCF72CFE10BD70B504466820FCF726FE06466C20FCF722FE0546702023
:40614000FCF71EFE2670310A6170A570290AE1702071000A607170BD10B50446012905D01820FCF70DFEC00B207010BD4820FCF707FE8007C00FF7E710B50146B020FCF76D
:4061800005FE0248FCF7FCFD10BD0000280A00000120C0027047000010B50146B020FCF7F5FD0248FCF7ECFD10BD00000C0A000010B50C460146B020FCF7E8FD0321A00178
:4061C0004902401810BD00008821074B414310B5C918FF2260314A770A7700228A77114600F04AFA10BD0000A813002088225043074A10B58018FF216030417701770021D4
:4062000081770448418EFF201D3000F07DFC10BDA81300205413002010B50C460146B020FCF7B4FDFF202530FCF7AAFD0222214600F002F810BD000010B50023884201D89A
:40624000081A03E00024E443201A4018044980B2884201D8824200D90123184610BD0000FF7F000010B5C420FCF78AFD0006C00F10BD000010B50348FCF782FDC007C00FD3
:4062800010BD00002C0A0000F8B503465078167800020643D07895780002054350791779000288240743002900D098241946B020FCF76CFD31462046FCF768FD201D294633
:4062C000FCF764FD204608303946FCF75FFDF8BDFFB581B014460D4606460A9FFFF768FF3B460021049AFCF731FD02484019845505B0F0BD6602002070B506460D46112485
:406300002520A40108214001FCF740FD2B46324600212046FCF71AFD70BD70B5212405466401FFF72FFE10232A4600212046FCF70DFD70BD10B504464078217800020143FB
:406340008F20C000FCF722FDE078A178000201430148FCF71BFD10BD7C04000010B50C460146B020FCF712FD802021460143FF202930FCF70BFD10BD70B50D460146B020FA
:40638000FCF704FDFF241D342046FCF7F9FC01090901FF202943013001432046FCF7F6FC70BDF8B500242646012807D0032802D0052808D105E002240A2604E004240C26E2
:4063C00001E004240D26492701463F013846FCF7DDFC25204001FCF7D3FCC5B228462042F7D0252031464001FCF7D0FC00213846FCF7CCFC2846F8BD70B50D460446014688
:406400001646B020FCF7C2FC512029464001FCF7BDFC31460648FCF7B9FC032189030820FFF794FC210275310020FCF7AFFC70BD240A000070B50D4604460146B020FCF739
:40644000A5FCFF2029461930FCF7A0FC21024B310020FCF79BFC70BD70B5491E8CB205460146B020FCF792FCFF2021461930FCF78DFC29024C310020FCF788FC70BD00003B
:40648000054910B5884200D908460146FF206130FCF77CFC10BD0000FF0F0000054910B5884200D908460146FF206530FCF76EFC10BD0000FF0F000070B58825144600290F
:4064C00000D098250146B020FCF760FC2846FCF757FC2070000A6070281DFCF751FCA070000AE07028460830FCF74AFC2071000A607170BD10B51446024611200B468001BA
:406500000021FCF70FFC012C01D1FFF735FD10BD10B504460920C001FCF732FC2070000A60700448FCF72CFCA070000AE070FFF723FD10BD840400000121814010B589B2A5
:4065400000227C2000F0EBFA10BD000070B5FF210120FFF7D3FBFF210820FFF7CFFB3020FFF7E4FB80210020FCF710FC002211460320FCF73FFC374DFF20A98DD530FCF709
:4065800005FC0024FF26F1362146B020FCF7FEFB298F3046FCF7FAFB2046FFF727FE641C2406240EF0D0FF20A98FF930FCF7EEFB28481030044600F079F9204600F0BEF94F
:4065C00000F04CF8234CB82040346188FCF7DEFBA188BC20FCF7DAFBE188C420FCF7D6FBFF20698EE130FCF7D1FBA12000210001FCF7CCFB3920FFF7C5FBFFF7C3FC93201F
:406600000721C000FCF7C2FBFFF7B6FCE020FFF73FFCE820FFF73CFCF020FFF739FC0020FEF722F8618A0C48FCF7B0FB0A482821001DFCF7ABFBFF210131AC20FCF7A6FB69
:40664000832000218000FCF7A1FB5B210020FCF79DFB70BD54130020140A000010B500217C20FCF793FB00217820FCF78FFB74210020FCF78BFB10BD70B50D460146144601
:40668000B020FCF783FBFF261D363046FCF778FB01090901FF20294301308143002C01D1102041403046FCF771FB70BDF3B589B0FF2001900D208001009048780D780002EA
:4066C0000543C8788E780002064348790979000201437C200791FCF753FB06907820FCF74FFB059074210020FCF750FB18480024049026E00120A04087B20098FCF740FBB2
:4067000003900098FCF73CFB02900098FCF738FB039A29465140029A72401143079A424011430BD10698074208D00598E040C1070998C90F814201D1019405E0641C04983A
:40674000E4B20078A042D5D801980BB0F0BD00009413002070B5FF257C20FCF711FB0849002401230A7805E01946A140014205D0641CE4B2A242F7D8284670BD2546FBE7C7
:406780009413002010B504461820FCF7F9FA0721C90288436107890C01431820FCF7F6FA10BD10B50446E020FFF772FB20782246401CC3B20021E020FCF774FA10BD00006C
:4067C00010B5044641790079042817D040000843A17B032901D8C9000843617B4A010243A079010207201143C00201431820FCF7CDFA21881C20FCF7C9FA10BD0846014989
:40680000E5E700000204000010B5012000F02EF90120FFF78BFA41210020FCF7B7FA10BD10B5002000F022F90120FFF7ABFA40210020FCF7ABFA10BD10B50C460146B0203A
:40684000FCF7A4FAFF2021460D30FCF79FFA10BD70B50C4601461E461546B020FCF796FAE92021468000FCF791FA75202946C000FCF78CFAEB2031468000FCF787FA6C43CB
:406880003B20A1B20001FCF781FA70BD70B50C4601461546B020FCF779FA21468420FCF775FA29468020FCF771FA70BD10B504464078217800020143FF20C130FCF766FA2F
:4068C000E078A17800020143FF20C530FCF75EFA6079217900020143FF20C930FCF756FA10BD70B5A124054624012046FCF748FA012D07D041084900814202D02046FCF727
:4069000045FA70BD014601221143F5E710B5044640782178000201436820FCF737FAE078A178000201436C20FCF730FA60792179000201437020FCF729FA10BD10B5044664
:4069400040782178000201435820FCF71FFAE078A178000201435C20FCF718FA60792179000201436020FCF711FA10BD10B50446E820FFF78DFA20782246401CC3B200213A
:40698000E820FCF78FF910BD10B50C460146B020FCF7FCF921460248FCF7F8F910BD00001C0A000010B50C460146B020FCF7EEF9FF2021460530FCF7E9F910BD70B5054614
:4069C00088000521FBF77CFC84B22946B020FCF7DDF921460448FCF7D9F9290272310020FCF7D4F970BD0000040A000010B504460146B020FCF7CAF9210273310020FCF72A
:406A0000C5F910BD10B504460146B020FCF7BEF9210270310020FCF7B9F910BD10B504460146B020FCF7B2F9210271310020FCF7ADF910BDF8B505461E4614460F4608463D
:406A400000F098F800902802A1000843304304462946B020FCF79AF921460098FCF796F90148C0194655F8BD6B02002010B50446B820FCF785F98005800DA102014389B262
:406A8000B820FCF783F910BD70B50D460146B020FCF77CF9FF241D342046FCF771F940218843A90101432046FCF770F970BD70B5A124054624012046FCF762F90222002D2C
:406AC00001D0104300E0904301462046FCF75EF970BD70B50D460146B020FCF757F9FF2029460930FCF752F9A12424012046FCF747F90222002D01D0104300E090430146D2
:406B00002046FCF743F970BD70B50C460546FCF737F9204301462846FCF738F970BDF8B516460D460746FCF72BF9014600202C0003D104E06408401C80B2E207FAD08640C7
:406B4000A9430E43B1B23846FCF720F9F8BD0000024A1018405C8007800F70476B02002010B50146B020FCF711F9FF202D30FCF707F910BD8000FF30413070470246FF2079
:406B8000052902D201484018805C70476602002010B50146B020FCF7F9F8FF202930FCF7EFF810BD0A4600B501461046FFF7E6FF00BD38B50C46054600216846009108F01C
:406BC000EFFF002804D1009928464C7000F09EFB38BD10B5044680780021FFF72DFE01212046FFF755F810BD436E002B0CD00B60014660318B781370826E4266CA788A7033
:406C00000021816608467047FF20704710B50346446E6033002C04D0846E002C04D0FF2010BD41669A7001E08166DA70002010BD0021416681667047406E002801D0002063
:406C40007047FF20704770B50446C0790D46810610D5DF210840E07100F0B6FD0570218941804034218A8180618AC180A18A018101F0F2F970BD000010B50446FEF7E6FD1B
:406C800001280AD1A1788820054A484380186030007FFDF76BFA012801D000F0A5FA10BDA813002070B50D460446FDF707F901281CD02079042801D0072816D1E879AE7905
:406CC00000020643A0783146FFF7A6FA012813D03246691C204600F035FA02212046FDF734FE01212046FEF7D3FF70BD01222421204600F0C3FA70BD28214C200155204652
:406D0000FEF772F970BD70B50D460646FDF7B3FD002847D120213046FDF713FB3446687840346073E87820220002E081A9780843E0816879010228790843218A814203D0E1
:406D4000F1791143F1712082E8790102A8790843618A814203D0F1791143F1716082687A0102287A0843A18AE180814203D0F1791143F171A082A08A218A8000FBF7A0FAE7
:406D8000401E618A80B2814200D9608201213046FDF7DEFDE87AA97A000201430022304600F0DCFA70BD0000F8B50C460546FDF785F8012849D0294EB07AC00709D0284671
:406DC000403000900078002805D0102805D01F212EE01A212CE0002700E001272846FEF7E1F9002823D02E4680360822611C7068FBF707FB7068617A20300172A17A417214
:406E000070682146183008220B31FBF7FAFA21462846042213313430FBF7F3FA39462846FDF7A2FF002810D1002F0FD012E007210322284600F022FAF28A08212846FDF7A4
:406E400075FA11212846FDF786FDF8BD06212846FDF784FD009801210176F8BD5413002010B5FDF7C1FF10BD38B504460020009020790D46042801D007281BD12046FDF7D5
:406E80001DF8012817D0684608F08AFE002811D10C486A78807A00991040112210402075607E082210436076204600F079F92046FDF797FD38BD08222421204600F0DEF9CC
:406EC00038BD0000541300207047000070B506460D460846FEF742F804463046FEF7ABFC00280CD0142C04D32946304600F0C7F805E00549A0000A582946304690472846B4
:406F000008F09EFE70BD0000FC21010070B50D460021002801D0002400E00C4C002C14D020464030C177807F032802D12046FEF7B5FD2046FFF7A0FE142D04D20449A80056
:406F4000095820468847FEF7E1FC70BDC81300204C22010010B5014640310C4609780E2903D1FDF785FF0120207610BD10B54021095C0F2901D1FDF79EFF10BD4021095C02
:406F80000F2902D1002120304177704738B5044600220E4800920D46807A11210840C0060ED52046FEF758FC012809D0684608F0F7FD002803D12046009900F053F938BDBE
:406FC0002946204600F05BF838BD00005413002010B51021FDF7B5F910BD10B54978FDF793FE10BD10B5FDF76EFF10BD012120304177704710B54021095C0C2901D1FDF766
:4070000077FF10BD10B54021095C0D2901D1FDF76BFF10BD70B5044600790D46052803D0062801D0082802D12046FDF77FFE68784C21085509212046FDF790FC2046FFF725
:40704000C8FD2046FCF73AFF0128A07805D0FFF7D9FC2046FEF702FE70BDFFF7DFFCF8E710B50446FF21FDF76CF916214C200155A078FFF7C7FC2046FEF7F0FD10BD70B514
:407080000C460546FEF7E2FB002802D02078687570BD21782846FFF78CFD70BD70B5054648780C46032802D12846FDF74AFE6078122803D110212846FDF743F970BD70474F
:4070C00038B5044600200D46009004212046FDF738F968782076E8780002A081A9780843A08168790002E08129790843E081607E04210843607680070CD4684608F050FD10
:4071000000281CD12046009900F00EF9607E022108436076E079410611D5BF210840E07100F052FB00210090017021894180A1898180217E4170E189C18001F071F838BDE4
:407140007047704770B50446C07815460A4600280AD00020E070C1B2A078FFF795F8A0782946FFF767F970BD0120F3E770B50546042008700C468420415908222031601C37
:40718000FBF73FF929462046042238310930FBF738F90D2229462046FEF7F6FC002070BD70B5054609200C46087008220021601CFBF730F9287D607004480922C07AA07032
:4071C00029462046FEF7E0FC002070BD541300200B4610B501460B20187001221846FEF7D3FC002010BD0000FEB50024164F03E0002C01D0002500E03D462846FFF71CFDB2
:4072000000281BD15F20405D002817D16A4601A92846FFF7E9FC002810D1019869460A7806782946FEF7B0FC022E07D1A8780121FFF72AFC09212846FDF790FB641C2406E3
